:020000040800F2
:10000000401D0020814C0008990200089B02000856
:100010009F020008A3020008A702000800000000D9
:10002000000000000000000000000000AB0200081B
:10003000AD02000800000000AF020008B102000895
:10004000974C0008974C0008974C0008974C000804
:10005000974C0008974C0008B3020008974C000822
:10006000974C0008974C0008974C0008974C0008E4
:10007000974C0008974C0008974C0008974C0008D4
:10008000974C0008974C0008974C0008974C0008C4
:100090009F050008D5050008974C0008DD3D0008C5
:1000A000974C0008974C0008974C0008974C0008A4
:1000B000974C0008974C0008974C0008974C000894
:1000C000974C0008974C0008974C0008974C000884
:1000D000974C0008974C0008974C0008974C000874
:1000E000B5020008974C0008974C0008000000007B
:1000F0000000000000000000000000000000000000
:100100000000000000000000974C0008974C000819
:10011000974C0008974C0008974C0008974C000833
:10012000974C0008974C0008974C0008974C000823
:10013000974C0008974C0008974C0008974C000813
:10014000974C0008974C0008974C0008974C000803
:1001500000F002F800F03AF80AA090E8000C82449F
:100160008344AAF10107DA4501D100F02FF8AFF27C
:10017000090EBAE80F0013F0010F18BFFB1A43F085
:1001800001031847C08D0000E08D0000103A24BF25
:1001900078C878C1FAD8520724BF30C830C144BFEC
:1001A00004680C607047000000230024002500262E
:1001B000103A28BF78C1FBD8520728BF30C148BFCA
:1001C0000B6070471FB51FBD10B510BD06F09AFB40
:1001D0001146FFF7F7FF00F019F806F0B8FB03B47B
:1001E000FFF7F2FF03BC06F0B9FB0000EFF3098054
:1001F000704780F309887047EFF30880704780F3F9
:100200000888704740BA7047C0BA704702F0BBFE1A
:1002100002F09DFE35E01B480068401C194908604B
:1002200008460068642803D101201749087009E0D6
:1002300014480068C82805D1002012490860012030
:100240001249087011480078C8B111480068401C74
:100250000F49086000200D49087002F0A7FE00F069
:10026000C4FF01F083F802F0FFFD094800680A2886
:1002700005D100200649086001200649087000F0F9
:100280006AF9C8E7040000207C0000207D000020FF
:10029000080000207F000020704700BFFEE700BF7D
:1002A000FEE700BFFEE700BFFEE7704770477047FC
:1002B000704770477047000008B50121212006F003
:1002C00034F80121480606F03DF80120ADF80000A1
:1002D00003208DF8020048208DF803006946C448C9
:1002E00005F0C8FC0220ADF8000018208DF80300CE
:1002F0006946BF4805F0BEFC01214FF4EB1005F044
:100300008AFD08BD08B514208DF8000001208DF885
:10031000010000208DF8020001208DF803006846DE
:1003200004F0CFFC08BD10B588B00446B1480460A5
:10033000FFF7E8FFFFF7C0FFAF4804F02BFD05A86B
:1003400004F04CFE00208DF81A008DF81B008DF88B
:100350001C008DF81D008DF81E0001208DF81F0077
:1003600000208DF8160001208DF817008DF8180078
:1003700000208DF819000420ADF8140005A99E484E
:1003800004F021FD00208DF80E008DF80F000120F3
:100390008DF810000020ADF80400ADF80600ADF8AF
:1003A0000800ADF80A00ADF80C0001208DF811002E
:1003B00001A804F092FD012202218F4804F036FECC
:1003C00008B010BD1FB5044600208DF80A008DF856
:1003D0000B0001208DF80C004FF6FF7000EA44205E
:1003E000ADF800000020ADF802004FF47E40ADF8FB
:1003F00004000020ADF80600ADF8080001208DF8DB
:100400000D00684604F069FD1FBD70B50446002567
:100410002146794804F013FE064605E06D1C774836
:10042000854201D9012070BD3146734804F09AFE1F
:100430000128F3D10020F6E72DE9F04188B080468D
:100440000C4600208DF814000290019004900127C2
:1004500000262AE0208806EB8601694A32F821103E
:10046000884220D1A0788DF814006068B0F5006F44
:1004700004D3606802900420039003E06068019058
:1004800000200390002506E0A068415D0DF11500F5
:100490004155681CC5B29DF81400A842F4DC01A8BF
:1004A000FFF7B3FF0027701C86B2032ED2D3384665
:1004B00008B0BDE8F0812DE9F04186B006464D4810
:1004C00000680068006800EB0618D8F80C5000BF00
:1004D000A87A28B92889ADF814008DF8166003E0D1
:1004E0001435287C0128F3D100BF4648877A0024C0
:1004F00006E044480B30005D0DF80400601CC4B2F7
:10050000BC42F6DBCDF808D0ADF80C7002A904A807
:1005100000F0C6F806B0BDE8F08110B50146002233
:100520000123002007E021FA00F41C4014B9441C08
:10053000E0B200E00122202801D2002AF3D010BD51
:1005400010B531480078012804D100202E490870E8
:10055000FFF7B1FF10BD2DE9F0414FF40077002403
:1005600017E02A4800EB0410C06800EA07050CE019
:100570002846FFF7D2FFC6B2244901EB04110888D0
:1005800000F0C6FB0120B0408543002DF0D1601C77
:10059000C4B2002CE5D0FFF7D3FFBDE8F08100B571
:1005A00085B06A460021144804F055FE14226946BD
:1005B000144806F00EF99DF80A0012498872009856
:1005C000086002210C4804F07AFF01200E490870EF
:1005D00005B000BD10B50B4A0121074804F03BFEF1
:1005E0000221054804F06BFF01200749087010BD87
:1005F0000014014010000020006400408096980024
:1006000038750008A40000200C000020148F00089A
:1006100010B50246002113E0384B1B685B685B692C
:1006200001EB810433F82430934207D1334B1B682C
:100630005B685B6901EB810403EB84004B1CD9B25E
:100640002E4B1B685B689B688B42E5D810BD2B491D
:10065000086070472DE9FE4305460C464FF001083F
:100660002846FFF7D5FF06467068019020798DF87F
:10067000020020680290ADF80050F1688878694661
:10068000FFF7DAFE0746012F00D106E0022F02D164
:100690004FF0010801E04FF000084046BDE8FE833E
:1006A0002DE9F0410646884614480068406805690F
:1006B00000241BE0E86800EB8407B878B188884222
:1006C00011D1A87A012802D003280AD108E004EB4E
:1006D00044010B4A32F83100414600F049FA01E08A
:1006E00000E000BF00E01835601CC4B20348006899
:1006F00040684068A042DDD8BDE8F08118000020C5
:10070000087500080021017041704180818081716D
:1007100081608181C181018200228276704770B53B
:100720000546002415E004EBC401686810F82100B8
:1007300030B104EBC401686810F82100012806D12B
:10074000C4EBC401FE4A02EB8100FFF7DBFF601C33
:10075000C4B2022CE7DB70BD0146052091FBF0F02E
:1007600080B270472DE9F04104460E4615461F46FB
:10077000A07909283DD1042F2FD1286840786080C6
:10078000608810B94FF6FF706080286880787F28F5
:1007900003D928688078F02803D328688078F9285E
:1007A0000AD93088012100F021FE2046FFF7AAFF78
:1007B0000D20E44908700FE0286880787F2802D96E
:1007C0000020607004E029688878FFF7C5FF60703A
:1007D0000A20A0710020A0800AE03088012100F0EA
:1007E00005FE2046FFF78EFF0F20D649087000BF98
:1007F00000BFBDE8F0812DE9F05F04460D4690464C
:100800004FF0000AE089218A401A1FFA80F9D8F8CF
:100810000000007800F00F0BA07905280AD0288886
:10082000012100F0C3FD2046FFF76CFF0920C549F8
:10083000087045E0207858450AD02888052100F046
:10084000B5FD2046FFF75EFF0A20BE49087037E07D
:100850002078401C2070207800F00F002070B9F143
:10086000070F04DC09F0FF074FF0010A00E007273B
:1008700000260CE0701CD8F80010085CA16809681C
:10088000A2898854A089401CA081701CC6B2BE42B7
:10089000F0DB208A38442082BAF1010F0AD128887F
:1008A000002100F083FD2046FFF72CFF0B20A54917
:1008B000087005E00520A071A889FFF74DFFA08012
:1008C000BDE8F09F2DE9F04104460F4616469846D4
:1008D000B088082820D1A07948B13888012100F0DB
:1008E00065FD2046FFF70EFF082096490870002599
:1008F00007E0A81C3168095C04F112004155681C2E
:10090000C5B2062DF5D30621A176A4F80E800220EB
:10091000A0712078401C2070BDE8F0812DE9F047DF
:1009200004460F4691461E46B879012801D18046FB
:1009300001E04FF00208A07948B13888012100F0A9
:1009400035FD2046FFF7DEFE07207E4908700025B2
:1009500009E008EB0501D9F80000415C04F1120040
:100960004155681CC5B2B542F3DBA676E68101208D
:10097000A071BDE8F08730B50246FF20002113E0EA
:10098000714C646801EBC10514F8254054B96E4CF4
:10099000646801EBC10504EB8504231D5C88944267
:1009A00000D108464C1CE1B2022901DAFF28E7D049
:1009B00030BDF0B5064614461D46FF2000233BE03F
:1009C000614F7F6803EBC30C17F82C70012F31D1F6
:1009D0005D4F7F6803EBC30C07EB8C073A1D9788CC
:1009E000B74227D19779012F05D10F683F7807F0DB
:1009F000F007302F0FD39779E7B997693F68D1F89F
:100A000000C09CF800C0674514D10F687F7807F0DC
:100A1000F007302F0ED29779012F05D10F683F785C
:100A2000277000272F7004E00F687F782770012758
:100A30002F7018465F1CFBB2022B01DAFF28BFD0D3
:100A4000F0BD2DE9FC4781460E4614461D460020A8
:100A5000019000906B4601AA31464846FFF7A9FF76
:100A60000746FF2F06D14846FFF785FF0746306847
:100A700000780190FF2F78D03348406807EBC7011A
:100A800000EB810000F104089DF8040000F0F00084
:100A900030B110281FD020282ED0302861D12EE070
:100AA000012020709DF800103068405C00F00F00BD
:100AB00028802888072803D998F80600012807D03D
:100AC0002888062802D998F8060008B1288808B9AD
:100AD0000020207048E002202070306840783168A3
:100AE000097801F00F0100EB0120288028880828F0
:100AF00001D20020207037E00320207034E09DF800
:100B0000040000F00F0010B90420207028E09DF8C8
:100B1000040000F00F00012805D09DF8040000F04B
:100B20000F0002281AD100202070B8F8000001211F
:100B300000F03CFC791CC1EBC101014A06E014E065
:100B4000B80000201C0000200476000802EB8100A1
:100B5000FFF7D8FD1020FD49087001E0002020704B
:100B600002E00020207000BF00BF3846BDE8FC87CF
:100B70002DE9FC4180460D466B4601AA29464046B8
:100B8000FFF75FFF0446F248406804EBC40110F829
:100B9000210038B9EE48406804EBC40100EB810045
:100BA000071D06E0EA48406804EBC40100EB810041
:100BB000061DFF2C3AD09DF80400052834D2DFE84A
:100BC00000F00304111D27002FE0BDF80010CBB288
:100BD000C4EBC401DF4A02EB81002A463146FFF72D
:100BE0009DFE22E0C4EBC401DA4A02EB8100BDF8AD
:100BF00000302A463146FFF765FE16E0C4EBC4011B
:100C0000D44A02EB81002A463146FFF7F4FD0CE09E
:100C1000C4EBC401CF4A02EB81009DF804302A46A0
:100C20003946FFF79FFD00E000BF00BFBDE8FC8133
:100C3000F0B50246FF20FF25002113E0C44E766880
:100C400001EBC10716F8276056B9C14E766801EB73
:100C5000C10706EB8706341DA688964200D10D46D3
:100C60004E1CF1B2022901DAFF2DE7D0002118E075
:100C7000B74E766801EBC10716F82760012E0ED13A
:100C8000B34E766801EBC10706EB8706331D5E881D
:100C9000964204D19E886788BE4200D108464E1C09
:100CA000F1B2022901DAFF28E2D0F0BD70B50346A7
:100CB000FF20002127E0A64D6D6801EBC10615F865
:100CC0002650F5B9C1EBC105A24E06EB8502A04D39
:100CD0006D6801EBC10605EB86052C1DA5889D42BC
:100CE0000FD19579072D0BD09579082D08D09579DE
:100CF0000C2D05D095790B2D02D095790D2D00D1B5
:100D000008464D1CE9B2022901DAFF28D3D070BD94
:100D10002DE9F04180464046FFF7C8FF0446FF2C0E
:100D20003AD0C4EBC4008B4901EB80058848406889
:100D300004EBC40100EB8100061DA879C01F072841
:100D40001DD2DFE800F004101C1C0519110000BFC3
:100D50003088002100F04AFB2846FFF7D3FC012031
:100D60007A49087016E000BF0920A8714FF47A7024
:100D7000FFF7F2FCA8800DE00A20A8710AE0308895
:100D8000012100F033FB2846FFF7BCFC02206F492D
:100D9000087000BF00BF1BE04046FFF749FF044654
:100DA000FF2C15D0C4EBC4006A4901EB80056848EC
:100DB000406804EBC40100EB8100071DA8790328FB
:100DC00005D10520A871B889FFF7C6FCA88000BF2F
:100DD000BDE8F08130B50246FF20002113E05C4CF5
:100DE000646801EBC10514F8254054B9584C646897
:100DF00001EBC10504EB8504231D1C88944200D13E
:100E000008464C1CE1B2022901DAFF28E7D030BDC8
:100E10002DE9F04107460D463846FFF7DBFF064651
:100E2000FF2E0BD0C6EBC6004A4901EB8004A07927
:100E300020B9A888E081A5600620A0710020BDE847
:100E4000F0812DE9F04106460C460127A06830B933
:100E5000E189308804F1080200F08EFA0746A068A4
:100E6000C8B1A0688088A189884214DD00270025C8
:100E70000EE004F11200405DA1680968A28988545F
:100E8000208A401C2082A089401CA081681CC5B219
:100E9000A07EA842EDDC3846BDE8F08170B504467E
:100EA0000D4629462046FFF7CCFF064656B9208856
:100EB000002100F07BFA2846FFF724FC1420234988
:100EC000087009E02088092100F070FA2846FFF731
:100ED00019FC15201D49087070BD06E05521838856
:100EE0000268D1548188491C818081880829F5D302
:100EF00070477FB504460D461646CDF808D0002051
:100F0000ADF80C000EBB3020BDF80C100DF8010040
:100F1000BDF80C00401C80B2ADF80C000020BDF8FC
:100F20000C100DF80100BDF80C00401C80B2ADF8AB
:100F30000C000A20BDF80C100DF80100BDF80C00E3
:100F4000401C80B2ADF80C0011E005E01C00002050
:100F500004760008B80000203220BDF80C100DF80F
:100F60000100BDF80C00401C80B2ADF80C0002A8D6
:100F7000FFF7B3FF4FF47A70FFF7EEFBA8806088AD
:100F800002A9FFF767FB7FBD70B506460C462146F8
:100F90003046FFF756FF05463DB90320A0712A46AB
:100FA00021463046FFF7A5FF06E00420A07103228A
:100FB00021463046FFF79DFF70BD2DE9F0470746FB
:100FC0000C46154698464FF00009A06820B93888AD
:100FD00004F1080100F0F2F9A068B8B1002611E0B0
:100FE000A0680068A189405CAA8829688854208A82
:100FF000401C2082A888401CA880A089401CA08199
:10100000701CC6B24645EBDB4FF001092846FFF7DE
:1010100064FF4846BDE8F0872DE9F04706460C46D8
:1010200015464FF00009E089218A401A1FFA80F81E
:1010300020782030AA8829688854A888401CA88075
:10104000B8F1070F04DC08F0FF074FF0010900E0DA
:1010500007273B462A4621463046FFF7AEFFB9F147
:10106000010F06D10B20A0713089FFF775FBA0801E
:1010700011E0608810B16088401E6080608820B1F7
:101080000C20A0716078A08005E00D20A07130894F
:10109000FFF762FBA0802078401C00F00F0020705A
:1010A000B0882946FFF7D6FABDE8F0872DE9F04170
:1010B00006460D461446E889C0F3032040F01000B0
:1010C000A28821688854A088401CA080A87BA288A0
:1010D00021688854A088401CA08006273B462246F1
:1010E00029463046FFF769FF8046B8F1010F0CD161
:1010F000012028700820A8713089FFF72DFBA880F7
:10110000B0882146FFF7A6FA09E03088092100F0EF
:101110006DF92846FFF7F6FA122088490870BDE8F5
:10112000F0812DE9F04106460C461546A07BAA88C1
:1011300029688854A888401CA880A37B2A46214699
:101140003046FFF73AFF0746012F0AD10720A0716A
:101150003089FFF701FBA080B0882946FFF77AFAB3
:1011600009E03088092100F041F92046FFF7CAFA6A
:10117000112072490870BDE8F0817FB504460D4624
:10118000164602A800900020ADF80400012E04D0FD
:10119000022E08D0032E12D10BE06A4629462046C3
:1011A000FFF7BFFF16E06A4629462046FFF77EFF9D
:1011B00010E06A4629462046FFF72EFF0AE0208805
:1011C000012100F013F92846FFF79CFA13205B4930
:1011D000087000BF00BF7FBD01460020CA89072AF2
:1011E00001D9022000E0012070472DE9F0470027D7
:1011F000B8460025002400269AE05148406806EBD6
:10120000C60110F82100002845D14D48406806EB82
:10121000C60100EB8100071DB87BC0EBC000494947
:1012200001EB8005A87900280BD0A879062809D100
:101230002846FFF7D1FF81464A4629463846FFF740
:101240009CFF73E0A88810B1A888401EA880A888D9
:1012500000286BD1A879C01F07281AD2DFE800F058
:10126000040508130619070000BF00BF00BF00BF38
:101270003888012100F0BAF82846FFF743FA042025
:101280002E49087006E0032229463846FFF775FF0D
:1012900000E000BF4AE02A48406806EBC60100EBC8
:1012A000810000F1040898F80E00C0EBC000254949
:1012B00001EB8004A079002838D0A079022802D060
:1012C000A079012812D1A079012807D002280BD1DA
:1012D0001EB921464046FFF757FE06E01EB92146DB
:1012E0004046FFF7DBFD00E000BF1FE0A08810B123
:1012F000A088401EA080A088C0B9A079032804D08F
:10130000042803D005280FD101E000BF00BF26B993
:10131000B8F80000012100F049F82046FFF7F2F983
:1013200006200649087000E000BF00BF701CC6B26E
:10133000022EFFF662AFBDE8F08700001C0000201F
:1013400004760008B800002010B5044620688068C4
:1013500058B12068406840B12068006828B100F0AA
:10136000DFF900F0EDF800F0B3FA10BD10B500F0B1
:10137000F8F900F0EAF810BD30B5034600202E4C15
:1013800024788CB9CC2B01D0FF2B0DD1B1F5805F27
:1013900008D20124284D2C702C4663802181241D05
:1013A000146002E0032000E0012030BD70B5044667
:1013B0000D462946204600F032FA70BD70B504464D
:1013C0000D4600261C48007B02280AD11A48C08915
:1013D000A04206D118481030286001201649087331
:1013E00002E000F0FBF90126304670BD70B50446FE
:1013F0000D4655B91048C089A04206D10E48407F1D
:1014000018B900200C49087301E000F0E7F970BD3D
:1014100070B50446204600F01BFA0546284670BD0C
:1014200070B50446204600F01AFA0546284670BDFD
:1014300010B5FFF79BFF10BD4011002070B50024D0
:101440000C2544480068406800684068424988614B
:101450001DE0681EC5B24048806900783E49496871
:10146000097888420ED13C484088CC2808D03A48B8
:101470004088FF2806D1384880694078012801D18A
:10148000012404E034488069103033498861002D1C
:1014900001DD002CDDD0012C12D12F498969881C77
:1014A00000F053FA012807D12B4880692A490C31F2
:1014B0008268294890470DE07F2000F0C7F809E0D6
:1014C00025484088FF2802D100F088F902E0112069
:1014D00000F0BCF870BD38B51F48007B78BB1E48D3
:1014E000007F012805D100201B490877FFF7A6FFE0
:1014F00025E01948407F10BB684601F06EF90446AC
:10150000012C1BD114488069C068B8B112488069A9
:1015100000782E2809D0104880690078362804D039
:101520000D4880690078312808D10B4880690A4A43
:101530000C320949C3689DF80000984700BF38BDC8
:101540004FF4803004498861704710B5FFF7C3FF3E
:1015500010BD000030790008401100200020D5495E
:101560000881704770B504460D46207F03280ED0D1
:1015700004DC012807D002280ED107E0042807D098
:10158000FF2809D105E000F0A3F906E000BF00BF85
:1015900000BF0020E07600E000BF00BF032D0CD0AC
:1015A00004DC012D07D0022D0BD105E0042D05D060
:1015B000FF2D06D103E000BF00BF00BF00BF2577AD
:1015C00000E000BF00BF70BD10B5BA48408A68B1E6
:1015D000B848408A401EB74948820846408A28B920
:1015E0000121B448FFF7BEFF01F004FD10BDB14872
:1015F000C06820B1AF48C068401EAE49C86070479F
:1016000010B5AC48008948B1AA480089401EA949D4
:1016100008810846008908B901F0ECFC10BD0521DD
:1016200090FBF1F1A34AD18270470020A149C88202
:10163000704710B50220A0490873AA219E48C181B5
:101640000146C8891031FFF7E3FB10BD70B50446B1
:1016500099480569782C03D001209749487704E020
:101660009448008B401C934908837F20287092483F
:10167000406800786870AC7003218F488182FFF762
:10168000D8FF70BD70B504460D466E69E08AA0B102
:10169000E08A401EE082E08A78B97088FFF7BFFFD9
:1016A0008548007B48B9208B642803D27820FFF757
:1016B000CDFF02E01020FFF7C9FF70BD10B5FFF7A6
:1016C00096FFFFF781FF7D497A48FFF7DBFFFFF7C1
:1016D00097FF10BD0020774908754882704710B504
:1016E0007748006880688068006844690220724911
:1016F00008702088FFF793FFFFF7ECFF01206E4989
:1017000008770020487710BD0521B0FBF1F1694A48
:10171000D16070476749C876704766490877704757
:1017200010B5684864494860674963480161002012
:10173000614988610870087340F6FF71614805F0DF
:1017400082F85021604805F07EF80120FFF7E5FFA0
:101750000020FFF7DFFF0020FFF7D6FFFFF7FEFEB8
:1017600010BD10B5FFF7AAFF10BD10B50320FFF79D
:10177000D4FF012050490870CC20488010204968CF
:10178000087002204C494968487002214A4801818A
:101790000020FFF7B9FFFFF7A2FF10BD10B503202F
:1017A000FFF7BBFF012044490870CC20488011207E
:1017B00049680870012040494968487002213E4844
:1017C0000181FFF78CFF10BD10B54A69938805248D
:1017D00093FBF4F343820123037510BD10B5002081
:1017E00035498861374848603749334801610020EE
:1017F00031490870087308770120487700202D4987
:101800000883FFF712FF2B48007F012802D1FFF762
:1018100061FF03E029492748FFF7D6FF10BD70B5E7
:1018200005460C4624480078012810D16CB922489E
:101830004088A84209D1204880690078362801D123
:10184000FFF74DFFFFF74BFF01E0FFF7C7FF70BD4C
:1018500001460120174A127F0A7000207047014696
:101860000120144AD27E0A700020704701201149DD
:10187000C96801B100207047052190FBF1F10D4AC4
:101880001181704710B501200B494877FFF7D1FE51
:1018900010BD014601200D4B5A6812B113780B7030
:1018A00000207047014600210020704701460021BA
:1018B000002070476011002040110020C878000807
:1018C00030790008F0000020EF10002020000020F8
:1018D0000120FB494871002008710860F94908702F
:1018E0004870704770B50446254615B92220FFF7A9
:1018F000ADFE284670BD10B502460020002107E06D
:10190000F14BDB7E545CA34200D101204B1CD9B2C9
:10191000032901DA0028F3D010BD70B5054628462A
:10192000FFF7E9FF044614B93320FFF78FFE204686
:1019300070BD70B504460D460126A54203DA0026A7
:101940001320FFF783FE304670BD10B5024600201D
:101950000321002107E0DC4B1B7F545CA34200D134
:1019600001204B1CD9B2032901DA0028F3D010BDA5
:1019700070B505462846FFF7E8FF044614B97E20F7
:10198000FFF764FE204670BD70B504460D4626463E
:1019900046B96888CC2803D11220FFF757FE01E032
:1019A000FFF71CFF304670BD2DE9F05F05460C4681
:1019B0004FF0010B686847784FF00309DFF80C839C
:1019C0004FF0000A01266888FF2808D107F07F073A
:1019D0006868407800F0800008B14FF0000B0CE020
:1019E000A9F1010000F0FF0998F80000B84202D107
:1019F0004FF0010A01E008F10708B9F1000F02DD1C
:101A0000BAF1000FECD029465046FFF7BDFF06465D
:101A1000012E04D108F10100FFF7AAFF0646012EAE
:101A200004D129890220FFF784FF0646012E04D144
:101A300008F10400FFF771FF0646012E0ED1022FB8
:101A40000CD100269E494879FFF74CFF06462A2014
:101A50009F4908704FF47A60FFF70EFF012E1FD1E7
:101A60003846FFF75AFEBBF1010F17D150206168CD
:101A700008706868407861684870282061688870DC
:101A800000206168C870A020616808710F2061683B
:101A9000487106212181FFF7F5FE01E0FFF79EFE68
:101AA000BDE8F09F2DE9F84F04460D460120009057
:101AB000606890F801804FF00109864E4FF0000AEF
:101AC00001276088FF2808D108F07F086068407807
:101AD00000F0800008B1002000900AE0A9F10100A8
:101AE00000F0FF093078404502D14FF0010A00E0D4
:101AF000F61DB9F1000F02DDBAF1000FEED021465C
:101B00005046FFF741FF0746012F03D1701CFFF736
:101B10002FFF0746012F04D121890220FFF709FF7B
:101B20000746012F03D1301DFFF7F7FE0746012FAF
:101B300029D10098012824D16548401C0078D52877
:101B40000AD15120696808706068407869684870F7
:101B500002212981FFF796FE00205D4908705E484A
:101B60000068806880680068D0F814B0BBF8001086
:101B700001EB81014FF6FF7202EA4100FFF77CFEA4
:101B800001E0FFF72BFEBDE8F88F70B5044625464F
:101B900015B93120FFF75AFD284670BD2DE9F05FD9
:101BA00004460D464FF001094C4E4FF0000A012744
:101BB000606840784FEA00286068807840441FFAE7
:101BC00080F80AE0A9F1010000F0FF0930884045E3
:101BD00002D14FF0010A00E00C36B9F1000F02DD2E
:101BE000BAF1000FEED05046FFF7CFFF0746012FA6
:101BF00004D121890320FFF79CFE0746012F03D162
:101C0000B01CFFF78AFE0746012F15D16A68D01C69
:101C1000B1688847834662206968087060684078C8
:101C20006968487060688078696888700BF10300A3
:101C30002881FFF727FE00BFBDE8F09F10B50246E0
:101C40000B46254C246824686168002000E01831A8
:101C50004C88944202D08C7D002CF8D04C88944261
:101C600003D10C780CB10120196010BD2DE9F041B1
:101C700004460D464FF00008174800680068876862
:101C8000386868B3A06858B304F11300FFF75DFE2D
:101C900038B304F11000FFF72EFE18B32A68D01CE9
:101CA000A16888470646622029680870608800128B
:101CB00029684870A07829688870F01CA88019E00D
:101CC000280000203000002060110020D07600089D
:101CD000F1FF0020E576000830790008EC76000876
:101CE00006E002E04FF0310804E04FF0310801E077
:101CF0004FF031084046BDE8F0812DE9F05F054620
:101D00008B464FF00108FA4C4FF000090126686835
:101D10004078070268688078384487B20AE0A8F102
:101D2000010000F0FF082088B84202D14FF00109FD
:101D300000E00C34B8F1000F02DDB9F1000FEED075
:101D40004846FFF722FF0646012E06D12989628800
:101D5000D21C90B2FFF7EDFD0646012E03D1201DE7
:101D6000FFF7DBFD0646012E0CD161886B68D81C9D
:101D7000A26890478246BAF1000F02D07220FFF7A6
:101D800065FC00BFBDE8F09F01460A7810064A785E
:101D900000EB02408A7800EB0220CA7810447047BA
:101DA0002DE9F04104460E461546D24840780128F8
:101DB00040D1D0488078217888423BD10020CD495D
:101DC00048707168881CFFF7DFFF8046C9482269A8
:101DD00041684046904707468FB9A078FFF79AFCC4
:101DE0000020C449087067206968087070684078EE
:101DF0006968487002212981FFF744FD19E000203D
:101E0000FFF788FCBB480078401CBA4908700846B8
:101E10000078022803D23520FFF718FC09E00020E3
:101E2000B449087040F6B830FFF76EFC3620FFF773
:101E30000DFC02E02420FFF709FCBDE8F0810A0E4A
:101E400002700A0C42700A0A8270C170704770B545
:101E500005460E461446A7484078012808D1A548F3
:101E600080782978884203D10020A249486008E0A0
:101E70000120A0494870287888709E48001DE968B4
:101E800088476720616808707068407861684870AA
:101E9000984A51686268901CFFF7D1FF06212181A2
:101EA000FFF7F0FC70BD2DE9F05F054689466868D4
:101EB00046784FF0020A904C4FF0000B01270DE0DE
:101EC000AAF1010000F0FF0A2078B04202D0607849
:101ED000B04202D14FF0010B00E01434BAF1000F10
:101EE00002DDBBF1000FEBD029465846FFF74CFD51
:101EF0000746012F03D1E01CFFF73AFD0746012FEB
:101F00000DD12078B04202D14FF0020801E04FF02D
:101F1000060829894046FFF70CFD074600BF012F40
:101F200003D1A01DFFF7F9FC0746012F14D1FFF7DD
:101F30009DFC18B93720FFF789FB0DE02078B042EF
:101F400005D14A4629462046FFF781FF04E04A466C
:101F500029462046FFF724FFBDE8F09F2DE9F05FFA
:101F600004460D46606890F801A04FF00208634EE9
:101F70004FF0000901270AE0A8F1010000F0FF0876
:101F80003078504502D14FF0010900E0F61DB8F15C
:101F9000000F02DDB9F1000FEED021464846FFF7F1
:101FA000F3FC0746012F03D1701CFFF7E1FC074645
:101FB000012F04D121890320FFF7BBFC0746012F25
:101FC00003D1301DFFF7A9FC0746012F15D160682A
:101FD00090F802B0BBF1010F0BD16820696808705E
:101FE000606840786968487002212981FFF74AFCDF
:101FF00002E03120FFF72AFB00BFBDE8F09F2DE98A
:10200000F04704460D46012721890B20FFF791FC7C
:102010000746012F03D13A48FFF77FFC0746012FFF
:1020200047D1606890F80180606890F80290B8F13C
:10203000000F3AD1B9F1440F37D10020314908716E
:102040006168C81CFFF7A0FE2E4908606168C81DC2
:10205000FFF79AFE82462B490868514600F0CDFCF6
:10206000064686B97420696808702020696848703F
:102070000F2069688870FF206968C8700421298171
:10208000FFF700FC14E0022E03D12220FFF7DEFA56
:102090000EE0032E01D0042E03D17020FFF7D6FAF4
:1020A00006E03120FFF7D2FA02E03120FFF7CEFA46
:1020B00000BFBDE8F0872DE9F047044689460125B9
:1020C00021890320FFF735FC0546012D03D10C487B
:1020D000FFF723FC0546012D3FD1606890F8018091
:1020E00008480079FF280FD100200649087110E048
:1020F0003077000830000020F876000820770008CC
:102100007C77000828000020FE480079401CFD492B
:102110000871FC480079404503D07320FFF796FA18
:102120001AE02089861E6268911CF64A10683246C1
:1021300000F09AFC0746F34800683044F149086013
:10214000022F03D12420FFF781FA04E0052F02D1EA
:102150007120FFF77BFA00BF00BFBDE8F0872DE9D3
:10216000F04105460C46012629890120FFF7E1FBD5
:102170000646012E03D1E448FFF7CFFB0646012EA9
:102180000FD100F05DFE07463FB977206168087007
:1021900001212181FFF776FB02E02420FFF756FAA8
:1021A00000BFBDE8F0812DE9F05F04460E4601272F
:1021B000D64D606890F801B0BBF1010F04D0214604
:1021C0000020FFF7E1FB0746012F2CD14FF0040957
:1021D0004FF0000A606880784FEA00286068C07895
:1021E00040441FFA80F813E0A9F1010000F0FF0954
:1021F000288840450BD16088CC2805D06088FF280E
:1022000005D1E878012802D14FF0010A00E010352D
:10221000B9F1000F02DDBAF1000FE5D05046FFF72B
:10222000B4FC074600BF012F03D1281DFFF7A0FB18
:102230000746012F05D12189AA78D01CFFF779FB29
:102240000746012F03D1E81DFFF767FB0746012F63
:1022500012D17120716808706068407871684870A8
:1022600060688078716888706068C0787168C870CC
:1022700031462046EA689047BDE8F09F70B50646B3
:102280000C466168081D00F0FAFA05461DB90120E8
:102290009C49487102E000209A494871281D20811C
:1022A000FFF7F0FA70BD70B506460C4600F03DFE33
:1022B000054635B9D5209649087000206168087137
:1022C00002E001206168087105212181FFF7DAFA37
:1022D00070BD70B504460E466168081D00F01FFB16
:1022E000054645B1022D03D12420FFF7AFF902E0E6
:1022F0002220FFF7ABF970BD2DE9F04105460F46EE
:1023000068684679304600F0BEFA044694B1032C62
:1023100003D0022C01D0042C03D12420FFF796F91E
:1023200008E0062C03D13120FFF790F902E02220CB
:10233000FFF78CF9BDE8F0812DE9F04104460D4628
:10234000012601276088FF2805D16068407800F0E9
:10235000800000B1002621890220FFF7EAFA074633
:10236000012F0ED1012E0AD17E206968087000204D
:102370006968487002212981FFF784FA01E0FFF7BC
:102380002DFABDE8F0812DE9F04704460D4660685E
:1023900090F801A04FF002085E4E4FF000090127AF
:1023A0000AE0A8F1010000F0FF083078504502D1A2
:1023B0004FF0010900E0F61DB8F1000F02DDB9F1A0
:1023C000000FEED021464846FFF7DEFA0746012F00
:1023D00003D1701CFFF7CCFA0746012F04D12189E5
:1023E0000220FFF7A6FA0746012F03D1301DFFF7A1
:1023F00094FA0746012F0AD1C52069680870606801
:1024000040786968487002212981FFF73BFABDE8EE
:10241000F08770B506460D4614467EB96E20616899
:10242000087068684078616848706868807861689A
:10243000887003212181FFF725FA02E07220FFF75F
:1024400005F970BD70B505460E4614465DB9762097
:102450006168087070684078616848700221218165
:10246000FFF710FA02E07220FFF7F0F870BD70B5C8
:1024700006460D4614461EB900206168087102E048
:10248000012061680871712061680870686840788F
:102490006168487068688078616888706868C0782A
:1024A0006168C87005212181FFF7ECF970BD2DE945
:1024B000F84305468846002000900027287A401EF1
:1024C00000F0010050BB2889401EC0F347061248A7
:1024D000067000242DE0012101EB44016868405C96
:1024E0004FEA0029022101EB44016868405C40EAA0
:1024F000090969464846FFF7A1FBB8B108F1040194
:1025000000980CE0280000207C7700083C77000849
:10251000F2FF00207F770008380000200CE0FFF772
:10252000A5FB07461FB9FFF7ADF900E03127601C96
:10253000C4B2B442CFDB00E0132717B13846FFF72F
:1025400085F8BDE8F8830146002011207047014658
:10255000EF2008700020704701460878EF2801D16D
:10256000002070470120FCE70146EF2008700020A2
:10257000704701460878EF2801D1002070470120FC
:10258000FCE70000014600200860704701465948FA
:1025900008600020704707B50098084410600020CC
:1025A0000EBD33B581B0044600256A46002102986D
:1025B000FFF7F1FF054615B90098A04200D00125AC
:1025C00000203EBD33B581B0044600256A46002197
:1025D0000298FFF7E0FF054615B90098A04200D029
:1025E000012528463EBD70B504460025207920B15E
:1025F000012806D002280ED109E0204600F062FD35
:102600000BE0A2892046A16800F060FD05E02046AD
:1026100000F06FFD01E0012500BF00BF284670BD3E
:102620002DE9F04105460E4614464FF000080027FC
:102630000120287112E0642C01D9642700E02746AC
:102640002D4A3946304600F07FF8A881E41B3E440D
:102650002948A8602846FFF7C6FF804614B1B8F1A4
:10266000000FE8D04046BDE8F0817FB50446002564
:102670000026206808B9012507E0002000908DF8A9
:1026800004006846FFF7AFFF054600260EE020680D
:10269000001D00EBC60042682068001D50F836108F
:1026A0006846FFF7BDFF0546701CC6B2206800787B
:1026B000B04201DD002DEAD035B902208DF80400CA
:1026C0006846FFF790FF05468DB9002061680978DC
:1026D00008066168497800EB01406168897800EB81
:1026E00001206168C97808440099A16000BF2846AC
:1026F00004B070BDAAAA5555801500200020F749E6
:102700000870C87481F8300081F8310070471020DB
:10271000704770B505460026002400BF10E0C4EBEA
:10272000C400EF4A02EB800000F1080111222846A4
:1027300004F00AF806F1110086B21135601CC4B22B
:10274000012CECDB304670BDF0B503460C46002092
:10275000002100BF2BE001EB4105E24E56F8255069
:102760009D4222D801EB410556F8255001EB410668
:10277000DC4F07EB8606766835449D4215D905E0A7
:102780001D781570521C5B1C641E401C6CB101EB63
:102790004105D44E56F8255001EB4106D14F07EBC9
:1027A0008606766835449D42EAD84D1CE9B2012977
:1027B000D1DBF0BD70B504460D460026112D09D1C0
:1027C00011222146C548401C03F0BEFF0120C34929
:1027D000087000E00126304670BD01460020BF4A67
:1027E00092F8312022B9BD4A927C0A70012002E0A1
:1027F00000220A70002070472DE9F04105460E4680
:10280000042702F05CFF2C460CE0204602F09EFFFD
:102810000746042F04D002F058FF0120BDE8F081E4
:1028200004F50064B442F0D902F04FFF0020F5E750
:1028300010B50124A948007D00EB4000A94951F8DA
:102840002000A9490860A548007D00EB4000A5498B
:1028500001EB80004068A44948600A4612680B46B4
:102860005B68D118A04A1068FFF7C6FF04461CB980
:1028700001209A49C87400E00124204610BD014699
:1028800000200870704710B5024600239348007876
:1028900008B9032304E0914890F8300000B1022306
:1028A000A3BB012A35DAC2EBC2008D4901EB8000DF
:1028B000408802EB42018B4C04EB8101097A88428B
:1028C00006DB02EB4200214601EB8000007AF0B902
:1028D0000020C2EBC201824C04F82100C2EBC2000E
:1028E000214601EB80004088401CC2EBC20104EB92
:1028F000810148800020794981F82400084602754A
:102900000020C8748874012081F8310002E001239E
:1029100000E006230BB1FFF7F1FE184610BD00B52D
:10292000024600236D48026290F83000032805D16A
:102930006A4981F831000020887402E00223FFF721
:10294000DDFE184600BD2DE9F04100266348C07C3D
:1029500008B902264EE0614890F82400012848DAC0
:102960005E4880695D49097D01EB41015D4A52F88D
:10297000211088423DD3594880695849C9690844A3
:102980005649097D01EB410152F82110534A127D4D
:1029900002EB4202534B03EB82025268114488421D
:1029A00027D84E4890F8245085B1FFF7B0FE471E57
:1029B000691E4A48283000EBC104D4E900010844EC
:1029C00046498969884200D9052600BF86B943482F
:1029D000283000EBC504283890F82400401C3F49FB
:1029E00081F824000846806920600846C06960605C
:1029F00000E005263046BDE8F0812DE9F0410546AE
:102A00000E46002435488561C661007808B9032464
:102A100009E0324890F8300028B1304890F8300092
:102A2000032800D00224ACB9FFF78DFF04468CB90F
:102A3000FFF76DFE471E2948806938402B49086022
:102A40000120264981F83000FF228021284803F028
:102A5000F2FE00BF0CB1FFF751FE00201F4981F8C4
:102A600031002046BDE8F08170B504460D460023D4
:102A700026461A4890F83000012801D0022308E0C9
:102A800016488069B04203D11448C069904200D210
:102A900005234BB9114805621648026002200F4910
:102AA00081F83100002088740BB1FFF727FE18462B
:102AB00070BD70B504460D46042602F000FE29469E
:102AC000204602F0D4FE0646042E03D002F0FDFD9F
:102AD000012070BD02F0F9FD0020FAE7E4150020A6
:102AE0009816002038790008B816002074000020DD
:102AF00018160020780000202DE9F05F0446D4F875
:102B00000080D4F80C904FF0000B00202081D4E915
:102B1000000100EB010A14E0C346D9F80070394601
:102B20005846FFF7C6FF054615B10120208101E098
:102B30000020208108F1040809F104096068001FE1
:102B40006060606828B12068504502D22089002862
:102B5000E2D02E463046BDE8F09F70B500246EE00E
:102B6000D4480068D44909680844802845D3D34D27
:102B7000D14B1B68C3F18002D14B196ACE4B1B6845
:102B8000E81803F0E1FDCE48006ACB490968C1F1BD
:102B900080010844CA490862C7480068C0F1800043
:102BA000C4490968081AC3490860C5488069C24910
:102BB0000968401AC3490860802048602846C860F8
:102BC0000846FFF799FFBE488069BB490968C1F113
:102BD00080010844BA4988610846C069B649096855
:102BE000C1F18001401AB649C8610020B2490860AD
:102BF000B448008918B3012421E0B04DB04A116AED
:102C0000AD4A1268A818AB4A126803F09DFDAC48A3
:102C10008069A84909680844A94988610846C069CB
:102C2000A4490968401AA649C861A3480068A14997
:102C300009680844A049086000209E4908609D4832
:102C4000006808B1002C8BD0204670BD70B50025FF
:102C500002209B4981F8300097480068002835D051
:102C6000964E0846806994490968401A954908605B
:102C7000FFF74DFD0446904A1268C2F180018E4A6A
:102C80001268B018FF2203F0D6FD30468D49C860A7
:102C9000601E89490968084048B1601E8649096874
:102CA0008143854801600068204483490860824868
:102CB00000688449486000207F4908608148FFF728
:102CC0001BFF8048008900B1012500BF284670BD68
:102CD00010B50024FFF741FF04467948C06918B9D0
:102CE00014B9FFF7B3FF0446204610BD2DE9F041AB
:102CF0004FF0000800247248007D00EB400072494C
:102D000051F82050FFF703FD0746FF2280216B4852
:102D100003F091FD69486B49C86052E0684890F83B
:102D20002400A04205DD6648283050F83400461BD8
:102D300010E06348007D00EB4000634951F820003B
:102D40005F49097D01EB41015F4A02EB810149685E
:102D50000844461B781E86435A48056018E0802EBA
:102D600004D3802057494860803E02E055484660C1
:102D700000265448FFF7C0FE524800685149496890
:102D80000844504908600846008908B14FF001081E
:102D900016B1B8F1000FE2D0494890F82400A042E3
:102DA0000DDD4748283050F8341000EBC40040686F
:102DB0000D18781E284010B1781E85433D44601CD4
:102DC000C4B23F4890F82400A04202DBB8F1000FE3
:102DD000A4D04046BDE8F0813EB5002438482430F8
:102DE00000902438006A01906846FFF73EFC0546D3
:102DF00000203349C874E5B90120097DC1EBC10148
:102E0000324A02F821002E49097DC1EBC10102EBD3
:102E1000810102984860FFF769FF044654B94CB13C
:102E200000202749097DC1EBC101284A02F8210091
:102E300000E001240020224981F8300020463EBDF8
:102E400000B500221E4890F83000022807D1032068
:102E50001B4981F83000002081F8310002E0022295
:102E6000FFF74CFC104600BD10B5154890F8310036
:102E7000012804D0022807D003280FD109E0FFF76A
:102E8000D7FC0F4988740AE0FFF722FF0C498874C9
:102E900005E0FFF7A1FF0A49887400E000BF00BF0A
:102EA0000748807C08B1FFF729FC0020044981F81D
:102EB000310010BD7800002074000020181600209A
:102EC000E4150020B8160020387900089816002074
:102ED00038B504466E4801F05DFF60680090009DC3
:102EE000002202216A4802F0A1F82068FDF787F964
:102EF000A84738BD002000BF11E00021C0EBC00290
:102F0000644B03EB82025160C0EBC00203EB820210
:102F10005180C0EBC00203F82210411CC8B2012846
:102F2000EBDB00215B4AD16170470020002100BF2C
:102F300008E0C1EBC102574B13F8222002B901206F
:102F40004A1CD1B2012901DA0028F2D0704710B52D
:102F5000FFF7D0FF504800782A2805D100204E49BD
:102F60000870FEF702FC0DE04B48401C0078D528A5
:102F700002D10A2049490860FFF7D7FF10B90A209B
:102F80004649086010BD10B501F049FE4448FDF700
:102F9000CAF94448FDF75BFB4348FDF7C0FB4348D3
:102FA000FEF7D2F900203D49086010BD1CB501A80C
:102FB000FEF736FA04466846FEF72AFA0446C4B914
:102FC0003648006890B19DF8040078B99DF800007B
:102FD00001280BD131480068401E3049086008467E
:102FE000006830B93248FFF773FF02E000202B4938
:102FF00008601CBD012080F3138800BF00BF2D486E
:10300000006800F4E0602C490843001D294908606D
:10301000BFF3408F00BF00BFFEE710B52748006830
:10302000401C26490860084600680F2801D9012085
:10303000086022480068052805D24FF40041204866
:1030400002F0C7FE04E04FF400411D4802F0BFFE4D
:103050001A4800680A2805D24FF40051184802F0B7
:10306000B8FE04E04FF40051154802F0B0FE1348DA
:103070000068962805D24FF48041114802F0A9FE5D
:1030800004E04FF480410E4802F0A1FE10BD0000A4
:103090000064004098160020F1FF0020840000200A
:1030A000987500088C7500080476000830790008CF
:1030B000000002080CED00E00000FA05800000208E
:1030C000001401404FF0FF310160704730B50B46EE
:1030D00000210BE004785D5C6C40E4B2074D55F8CC
:1030E0002440056884EA15240460491C9142F1D308
:1030F00030BD0168C9430160704700004479000891
:1031000070B504460D46164632462946204602F062
:1031100062FE70BD10B50446201200F0B3FC0A2018
:1031200000F0CBFCE0B200F0ADFC0A2000F0C5FCE2
:1031300010BD10B5044600220421FA48FFF7E0FF55
:10314000204600F09FFC0A2000F0B7FC10BD10B52F
:1031500004467020FFF7EDFF002000F093FC0A20EA
:1031600000F0ABFC204600F08DFC0A2000F0A5FC2E
:1031700001220421EB48FFF7C3FF10BD10B5222048
:10318000FFF7E5FF7220FFF7D4FF10BD70B50546CD
:103190000C462846FFF7DBFF7220FFF7CAFF20121C
:1031A00000F070FC0A2000F088FCE0B200F06AFC3D
:1031B0000A2000F082FC01220421DA48FFF7A0FF78
:1031C00070BD70B504460D4621462020FFF7DEFF96
:1031D00029462120FFF7DAFF70BD70B505460024AF
:1031E00040F23F110020FFF7ECFFFFF7C7FF00BFE1
:1031F00003E02846FFF78EFF641CB4F5963FF8D332
:1032000001220421C748FFF77BFF70BD01B5BDF85F
:103210000000C549088008BD01B5BDF80000C349DC
:10322000088008BD01B581B000200090C049019818
:103230004843009002E00098401E0090009800284B
:10324000F9D10CBD00B587B00121112003F06DF854
:103250000121B84802F0DFFD0121C80303F072F834
:103260004FF4A050ADF8040003208DF8060018209C
:103270008DF8070001A9B04802F0FCFC4FF4006093
:10328000ADF8040003208DF8060048208DF80700F3
:1032900001A9A94802F0EEFC0020ADF808004FF4A7
:1032A0008270ADF80A000020ADF80C000220ADF8E5
:1032B0000E000120ADF810004002ADF812001820F9
:1032C000ADF814000020ADF8160002A99B4803F0E9
:1032D000B7F80720ADF818000121984803F076F9F7
:1032E00007B000BD08B50121082003F01EF8042036
:1032F000ADF8000003208DF8020010208DF80300C7
:103300006946884802F0B6FC08BD10B5FFF7EAFF31
:10331000FFF798FF0520FFF785FF4FF40041E520F8
:10332000FFF734FF01210020FFF730FF4FF48071D9
:103330000120FFF72BFF4FF4E0610220FFF726FF8B
:1033400041F230010320FFF721FF00210420FFF7A5
:103350001DFF40F202210820FFF718FF002109207D
:10336000FFF714FF00210A20FFF710FF00210C20B7
:10337000FFF70CFF00210D20FFF708FF00210F20B1
:10338000FFF704FF00211020FFF700FF00211120AC
:10339000FFF7FCFE00211220FFF7F8FE00211320AA
:1033A000FFF7F4FE1420FFF73DFF41F2B07110204B
:1033B000FFF7ECFE40F237111120FFF7E7FE052082
:1033C000FFF730FF40F239111220FFF7DFFE052032
:1033D000FFF728FF4FF4E8511320FFF7D7FE132122
:1033E0002920FFF7D3FE0520FFF71CFF0021202036
:1033F000FFF7CCFE00212120FFF7C8FE0621302078
:10340000FFF7C4FE40F201113120FFF7BFFE032198
:103410003220FFF7BBFE4FF483713520FFF7B6FE75
:1034200040F602313620FFF7B1FE40F2023137207C
:10343000FFF7ACFE40F207713820FFF7A7FE072127
:103440003920FFF7A3FE4FF4C0613C20FFF79EFE3A
:1034500040F20B213D20FFF799FE00215020FFF79D
:1034600095FEEF215120FFF791FE00215220FFF73A
:103470008DFE40F23F115320FFF788FE4FF42741A5
:103480006020FFF783FE01216120FFF77FFE00210E
:103490006A20FFF77BFE00218020FFF777FE0021E6
:1034A0008120FFF773FE00218220FFF76FFE0021CD
:1034B0008320FFF76BFE00218420FFF767FE0021C9
:1034C0008520FFF763FE10219020FFF75FFE0021AB
:1034D0009220FFF75BFE03219320FFF757FE4FF486
:1034E00088719520FFF752FE00219720FFF74EFECE
:1034F00000219820FFF74AFE41F218010320FFF750
:1035000045FE40F273110720FFF740FE0020FFF751
:1035100083FE4FF6FF70FFF779FE1F20FFF75DFE79
:1035200010BD0000000C0140880000208A0000202F
:10353000A08601000010200000100140003C004067
:1035400010B5FFF7E2FE10BD2DE9F04707460C4627
:10355000904600250026A946B94640F23F10001BC0
:1035600081B24846FFF72DFE00BF26E0FFF706FEBA
:1035700000260FE038F815000121B140084020B9BD
:10358000FE480088FFF7C6FD03E0FD480088FFF70E
:10359000C1FD761C102EEDD301220421F948FFF75E
:1035A000AFFD09F1010000F0FF0940F23F10001BE0
:1035B00081B24846FFF705FE6D1C182DD6D3BDE835
:1035C000F08770B505460E461446A4F12000C4B23B
:1035D00004EB4400EC4901EB001231462846FFF7AA
:1035E000B3FF70BD2DE9F04107460C4600250026CB
:1035F00009E0227831463846FFF7E3FF06F1100074
:1036000086B2641C6D1C207808B1012000E0002007
:10361000142D01D2012100E0002108400028E8D14A
:10362000BDE8F08110B50446D8A12046FFF7DAFFC7
:1036300010BD2DE9F04104460D4616461F46B44222
:1036400006DBA01B401C81B25020FFF79FFD03E06A
:1036500000215020FFF79AFD21465120FFF796FDEB
:10366000BD4206DBE81B401C81B25220FFF78EFDF5
:1036700003E000215220FFF789FD29465320FFF780
:1036800085FD29462046FFF79CFDBDE8F08110B579
:103690004FF4A073F022591EEF20FFF7CAFF41F24A
:1036A00018010320FFF772FD10BD10B50446FFF7A7
:1036B00065FD2046FFF72EFD01220421B148FFF7EA
:1036C0001FFD10BD2DE9F04107460D4616469846F0
:1036D000002440F23F10401B81B23846FFF771FDD5
:1036E000B8F1000F10D1FFF749FD00BF04E0A44876
:1036F0000088FFF70FFD641CB442F8D301220421B7
:10370000A048FFF7FDFC11E000240DE09C48008874
:10371000FFF7CBFF781CC7B240F23F10401B81B2CD
:103720003846FFF74EFD641CB442EFD3BDE8F0818C
:103730002DE9F04106460C4617461D4600232A4651
:1037400021463046FFF7BEFFF119C8B200232A46D2
:103750002146FFF7B7FF40F23F10001B81B2012363
:103760003A463046FFF7AEFF6019401E40F23F1266
:10377000101A81B201233A463046FFF7A3FFBDE895
:10378000F0812DE9F04706460F4690460320A0EB56
:1037900048090024454676E040F23F12D21B2A44F5
:1037A00091B23219D0B2FFF70CFD75480088FFF7CF
:1037B0007CFF40F23F12D21B521B91B23219D0B2A1
:1037C000FFF7FFFC6E480088FFF76FFF40F23F12E3
:1037D000D21B2A4491B2321BD0B2FFF7F2FC6848E8
:1037E0000088FFF762FF40F23F12D21B521B91B2DA
:1037F000321BD0B2FFF7E5FC61480088FFF755FFA8
:1038000040F23F12D21B224491B27219D0B2FFF79C
:10381000D8FC5B480088FFF748FF40F23F12D21BFC
:10382000121B91B27219D0B2FFF7CBFC544800883A
:10383000FFF73BFF40F23F12D21B224491B2721BB2
:10384000D0B2FFF7BEFC4E480088FFF72EFF40F2D3
:103850003F12D21B121B91B2721BD0B2FFF7B1FC08
:1038600047480088FFF721FFB9F1000F04DA06206E
:1038700000EB8400814405E0601B0A2101EB80001D
:1038800081446D1E641CAC4286D9BDE8F08770B5DA
:1038900006460024002540F23F110020FFF791FC6E
:1038A000FFF76CFC00BF14E000250FE056F8240081
:1038B0000121A940084020B930480088FFF72AFCC0
:1038C00003E02F480088FFF725FC6D1C202DEDD369
:1038D000641CB4F5166FE7D3012204212948FFF7D1
:1038E0000FFC70BD70B50646002400252D480088E9
:1038F0004FF6C77108402B4908800846008840F001
:10390000080008803046FFF722FC7320FFF711FC07
:1039100000BF16E0FF21234802F089FE00BF80218E
:10392000204802F0D7FE0028F9D100BF01211D4830
:1039300002F0D0FE0028F9D01A4802F07AFE681C86
:10394000C5B2052DE6DBFF21164802F070FE00BF70
:103950008021144802F0BEFE0028F9D100BF0121E9
:10396000104802F0B7FE0028F9D00E4802F061FEC0
:103970000446FF210B4802F05AFE15E08A000020A1
:1039800088000020000C0140447D000820202020F9
:103990002020202020202020202020202020202027
:1039A00000000000003C004000BF8021334802F0CE
:1039B00091FE0028F9D100BF0121304802F08AFEB3
:1039C0000028F9D02D4802F034FEE1B240EA01248B
:1039D000012204212A48FFF793FB284800884FF66C
:1039E000C771084025490880204670BD10B50021E8
:1039F0001020FFF7CBFB00211120FFF7C7FB0021B0
:103A00001220FFF7C3FB00211320FFF7BFFB142098
:103A1000FFF708FC41F2B0711020FFF7B7FB40F24E
:103A200037111120FFF7B2FB0520FFF7FBFB40F237
:103A300039111220FFF7AAFB0520FFF7F3FB4FF423
:103A4000E8511320FFF7A2FB13212920FFF79EFB6B
:103A50000520FFF7E7FB40F273110720FFF796FB05
:103A600010BD10B540F273110720FFF78FFB10BD9A
:103A700010B500210720FFF789FB10BD003C004076
:103A8000000C014070B50446002500BF0221F74834
:103A900002F020FE0028F9D02146F44802F0C7FDCC
:103AA00000BF0121F14802F015FE0028F9D0EF48CF
:103AB00002F0BFFDC5B2284670BD002100E0491CE0
:103AC0008142FCD3704710B50024E948C06820F05B
:103AD0001000E749C8600A20FFF7EFFF9020FFF7CA
:103AE000D1FF0A20FFF7E9FFFF20FFF7CBFF0446D5
:103AF0004FF6FF7000EA04240020FFF7C3FF2044C4
:103B000084B2DB48C06840F01000D949C8600A2080
:103B1000FFF7D3FF2411204610BD10B50024D44870
:103B2000C06820F01000D249C8600A20FFF7C5FF26
:103B3000D020FFF7A7FF0A20FFF7BFFF0020FFF705
:103B4000A1FF04464FF6FF7000EA04240020FFF7AF
:103B500099FF204484B2C648C06840F01000C449B0
:103B6000C8602411204610BD10B5FFF7ACFFC14955
:103B70008880FFF7D2FFBF49C880012010BD08B57B
:103B800000214FF0006001F0CEF84FF4A06001F08A
:103B900093F817208DF8000002208DF80100002016
:103BA0008DF8020001208DF80300684601F089F8C5
:103BB00008BDF0B58BB0002500278021AE4802F08B
:103BC000ECF810B9FFF7D0FF02E000200BB0F0BD19
:103BD0000EE0FFF7C9FF58B1A648808801A921F877
:103BE0001500A448C18806A820F81510681CC5B2A5
:103BF0000A2DEEDB66D100BF0026002418E001A8E4
:103C000030F8141001AA601C32F8100081420DDD5A
:103C100001A9601C31F8107001A830F81410601C64
:103C200022F8101001A820F814700126601CC4B2FC
:103C3000681EA042E3DC002EDED100BF0026002477
:103C400013E006A830F81420611C30F811008242FD
:103C500009DD06A830F8117030F8142020F8112082
:103C600020F814700126601CC4B2681EA042E8DC73
:103C7000002EE3D1BDF80A00BDF80C100844BDF8D1
:103C80000E100844032190FBF1F07A498880BDF8BA
:103C90001E10BDF820000144BDF822000844032195
:103CA00090FBF1F07349C880084682880521C8203E
:103CB00000F044FF6F48C2889621C82000F03EFF04
:103CC000012083E7002081E700B589B001211120A0
:103CD00002F02BFB0121C80302F034FB01216748ED
:103CE00002F099F84FF4A050ADF8200003208DF8B1
:103CF000220018208DF8230008A95D4801F0BAFFC2
:103D00004FF40060ADF8200003208DF82200482019
:103D10008DF8230008A9564801F0ACFF0020ADF84B
:103D200004004FF48270ADF806000020ADF80800E2
:103D30000220ADF80A000120ADF80C004002ADF8F9
:103D40000E001820ADF810000020ADF8120007207A
:103D5000ADF8140001A9454802F072FB0121434867
:103D600002F034FC1020ADF8200003208DF8220072
:103D700010208DF8230008A93D4801F07BFF3C4846
:103D8000C06840F010003A49C8600121402002F0AC
:103D9000CCFA8020ADF8200001208DF822004820C8
:103DA0008DF8230008A9344801F064FF072104209E
:103DB00002F066F88020069000208DF81C000C2090
:103DC0008DF81D0001208DF81E0006A801F0D8FB1B
:103DD000FFF7D5FEFFF7EDFE09B000BD0120254934
:103DE000087280202649086070472DE9FF5F06466B
:103DF0000027B846B946BA460120039000BF00200C
:103E00001C490872FFF7D5FE002860D0039860B106
:103E100018488088174908800846C08848800846A6
:103E20008488C5880020039051E0022E4CD11148AF
:103E30008088A04202DA781CC7B203E008F10100D2
:103E400000F0FF080B48C088A84204DA09F101001D
:103E500000F0FF0903E00AF1010000F0FF0A054A43
:103E60009288A11A00290DDB0A460CE0003C0040B4
:103E700000100140C816002000180140001020006A
:103E8000140401404A42B2F52F7F0ADCFC4AD28872
:103E9000A81A002801DB024600E04242B2F52F7F5B
:103EA0000EDD00208246814680460746F4480088A1
:103EB000F3498880044608464088C880054613E0D8
:103EC000EF488488C58802E0012E00D10CE00A206A
:103ED00000F08AFEEB48006800F0800000288ED0D9
:103EE000E748007A01288AD000BF322000F07CFE2B
:103EF0000020E34908720A461288A11A002901DB52
:103F00000A4600E04A42C82A09DCDD4A5288A81A5B
:103F1000002801DB024600E04242C82A01DD022EF1
:103F200041DAD749C868002103F09AF830D0D44963
:103F3000B1F9140003F004F9D1490290088803F0A4
:103F400017F90090CE48C168009803F025F9019058
:103F5000029902F055FF834603F0D2F8C849088061
:103F6000B1F9160003F0ECF8C5490190488803F058
:103F7000FFF80090C2480169009803F00DF98346EC
:103F8000019902F03DFF029003F0BAF8BC49488065
:103F9000BB480088BA49888008464088C88001200C
:103FA00004B0BDE8F09FB64A1288A11A002901DBCF
:103FB0000A4600E04A42B2F5FA7F0CDCB04A528869
:103FC000A81A002801DB024600E04242B2F5FA7F5F
:103FD00001DC0020E4E7AA49C868002103F040F8AA
:103FE0005DD0A749B1F9140003F0AAF8A4490190E3
:103FF000088803F0BDF80090A148C168009803F05C
:10400000CBF88346019902F0FBFE029003F078F8AA
:104010009B490880B1F9160003F092F89849019085
:10402000488803F0A5F8009095480169009803F0CE
:10403000B3F88346019902F0E3FE029003F060F8C2
:104040008F494880B1F9140003F07AF802902046B5
:1040500003F08EF800908A48C168009803F09CF83D
:104060000190029902F0CCFE834603F049F884B235
:104070008349B1F9160003F063F80290284603F073
:1040800077F800907E480169009803F085F8019068
:10409000029902F0B5FE834603F032F885B2A9EB2F
:1040A0000A00A7EB0801002901DB0A4600E04A42AA
:1040B000002801DB034600E043429A4221DD704ABA
:1040C0005288A81A6E4A1288A11A002901DB0A46F2
:1040D00000E04A42002801DB034600E043429A42E6
:1040E00007DD67480088A04201DA202058E7102049
:1040F00056E763484088A84201DA802050E7402014
:104100004EE75F4A1288A01A5D4A5288A91A002910
:1041100001DB0A4600E04A42002801DB034600E0DA
:1041200043429A4207DD56484088A84201DA80207F
:1041300036E7402034E752480088A04201DA2020C8
:104140002EE710202CE710B504464D488088904299
:104150000DDC4B488088A04209DB4948C088984262
:1041600005DC4748C088884201DB012010BD0020E3
:10417000FCE72DE9F0410646082E35D2DFE806F0CF
:1041800004356FECEBEAE9E80120FFF72EFE054667
:1041900005F0010010B90020BDE8F0810A270024D5
:1041A00020E0032094FBF0F100FB114000EB8000C5
:1041B00000010A30C5B2052C01DDD82702E0022C2F
:1041C00000DD712707F15A0083B205F13B00C2B24E
:1041D00039462846FFF7B7FF10B1601CC0B2DBE7D5
:1041E000601C84B2092CDCDB1EE20220FFF7FDFD1F
:1041F000054605F0010068B3002411E0601C2A2286
:1042000002EB401083B202EB441081B2EF22002097
:10421000FFF799FF10B1601CC0B2BDE7601C84B20B
:10422000082CEBDB40F23F1328224FF4967100205C
:10423000FFF789FF08B10920AEE740F23F13EF22F4
:104240004FF49671C820FFF77EFF08B10A20A3E75C
:104250000020A1E715B105F0F0009DE7E4E10120A1
:10426000FFF7C3FD054605F0010000286FD0A62327
:104270001C228E210420FFF766FF28B101208BE766
:10428000C816002008180140A62354228E213C2085
:10429000FFF759FF08B102207EE7A62378228E217E
:1042A0006020FFF750FF08B1032075E7A623A02286
:1042B0008E218820FFF747FF08B104206CE7A62372
:1042C000C4228E21AC20FFF73EFF08B1052063E732
:1042D000A623EC228E21D420FFF735FF08B106205B
:1042E0005AE7E6231C22CE210420FFF72CFF08B159
:1042F000072051E7E6235422CE213C20FFF723FF7D
:1043000008B1082048E7E6237822CE216020FFF795
:104310001AFF08B109203FE7E623A022CE2188201A
:10432000FFF711FF08B10A2036E7E623C422CE21A9
:10433000AC20FFF708FF08B10B202DE7E623EC22A5
:10434000CE21D420FFF7FFFE38B10C2024E71CE07B
:1043500042E12EE1D0E099E018E040F23F1328223C
:104360004FF496710020FFF7EEFE08B10D2013E721
:1043700040F23F13EF224FF49671C820FFF7E3FE9F
:1043800008B10E2008E7002006E74DE10120FFF705
:104390002CFD054605F00100002876D06023F022B0
:1043A0004821D620FFF7CFFE08B10120F4E677239D
:1043B000992267215720FFF7C6FE08B10220EBE6DD
:1043C000F7233822DF210820FFF7BDFE08B10320C4
:1043D000E2E6F7237022DF214020FFF7B4FE08B1A8
:1043E0000420D9E6F723A822DF217820FFF7ABFECF
:1043F00008B10520D0E64FF48A73CC22E021B22028
:10440000FFF7A1FE08B10620C6E6F823EE22E02160
:10441000D620FFF798FE08B10720BDE64FF48A7357
:10442000EE22FC21D620FFF78EFE08B10820B3E66D
:104430004FF49C7334224FF490711C20FFF783FEDD
:1044400008B10920A8E64FF49C7384224FF49071C0
:104450006C20FFF778FE08B10A209DE64FF49C73AC
:10446000D4224FF49071BC20FFF76DFE08B10B20F1
:1044700092E66223D22253211E20FFF764FE10B180
:104480000C2089E601E0002086E600BF0120FFF74E
:10449000ACFC054605F0010068B3002411E0601C87
:1044A0002A2202EB401083B202EB441081B2EF22C9
:1044B0000020FFF748FE10B1601CC0B26CE6601C23
:1044C00084B2082CEBDB40F23F1328224FF49671A4
:1044D0000020FFF738FE08B109205DE640F23F13E7
:1044E000EF224FF49671C820FFF72DFE08B10A2085
:1044F00052E6002050E697E00120FFF776FC0546E3
:1045000005F0010080B3EF233D22D7212520FFF7DE
:104510001AFE08B101203FE6EF237522D7215D2066
:10452000FFF711FE08B1022036E6EC23CB22DA2198
:104530009820FFF708FE08B103202DE640F21D1376
:10454000342240F205111C20FFF7FDFD08B10420C4
:1045500022E640F21D13842240F205116C20FFF781
:10456000F2FD10B1052017E622E040F21D13D4221F
:1045700040F20511BC20FFF7E6FD08B106200BE66E
:1045800040F23F1328224FF496710020FFF7DBFD25
:1045900008B1072000E640F23F13EF224FF4967176
:1045A000C820FFF7D0FD08B10820F5E50020F3E5AD
:1045B0003AE00120FFF719FC054605F0010050B173
:1045C000A923992297216F20FFF7BDFD08B1012093
:1045D000E2E50020E0E527E00120FFF706FC0546C4
:1045E00005F00100F8B13C23EF2200210846FFF757
:1045F000AAFD08B10220CFE54FF48273EF223C21DF
:104600000020FFF7A0FD08B10320C5E540F23F13ED
:10461000EF224FF482710020FFF795FD08B10120D1
:10462000BAE50020B8E500BF00BF0020B4E510B532
:10463000002414E004EBC40149001E31CAB204EBAB
:10464000C40149000E31C8B240F21D1340F20D11F1
:10465000FFF779FD08B1204610BD601CC4B20A2CDA
:10466000E8DB40F21D13E22240F20D11C220FFF7F9
:104670006AFD08B10A20EFE70B20EDE770B5FE49AF
:10468000C868FE4902F088FD054602F01DFD04469B
:10469000F9490869F94902F07FFD054602F014FD69
:1046A000044604F0F00444F00A0470BD0020704792
:1046B0002DE9F04F87B04FF0000A00BF4FF6FF70B2
:1046C000EF490880FEF7A8FD4FF6FF70FEF785FD65
:1046D0004FF47840EB49088008460088FEF796FDC5
:1046E0000020E5490872C86004E2E348007A012826
:1046F0007ED10020FFF779FB00F0010068B1DE48B1
:10470000808803A921F82A00DB48C08801EB8A01D0
:1047100048800AF1010000F0FF0ABAF1010F09D048
:10472000BAF1020F0BD0BAF1030F0DD0BAF1040F9A
:1047300004D10EE04FF6FF70FEF74FFDD8E14FF6C3
:10474000FF70FEF74AFDD3E14FF6FF70FEF745FD1F
:10475000CEE1BDF80C10BDF81020881A002801DB4E
:10476000014600E041420C46BDF80E20BDF8121093
:10477000501A002801DB014600E0414289466443AB
:1047800009FB09F904EB090002F04FF9074602F0B2
:10479000ECF8054602F01CF91FFA80FBBDF8141076
:1047A000BDF81820881A002801DB014600E04142CC
:1047B0000C46BDF81620BDF81A10501A002801DB6F
:1047C000014600E041428946644309FB09F904EBD4
:1047D000090002F02AF9074602F0C7F8054602F080
:1047E000F7F880B20290029802F0C2FC054600E0A1
:1047F0007FE1584602F0BCFC0646294602F06EFBFB
:104800000190019802F0D0FA05464FF066329E4BB7
:1048100002F01EF908D3019802F0C6FA05469B4A39
:104820009B4B02F0A5F906D24FF0000A4FF6FF703D
:10483000FEF7D3FC5EE1BDF80C10BDF81420881A19
:10484000002801DB014600E041420C46BDF80E2085
:10485000BDF81610501A002801DB014600E0414265
:104860008946644309FB09F904EB090002F0DDF80D
:10487000074602F07AF8054602F0AAF81FFA80FB14
:10488000BDF81010BDF81820881A002801DB014679
:1048900000E041420C46BDF81220BDF81A10501A33
:1048A000002801DB014600E041428946644309FBE0
:1048B00009F904EB090002F0B8F8074602F055F8D0
:1048C000054602F085F880B20290029802F050FC92
:1048D0000546584602F04CFC0646294602F0FEFA10
:1048E0000190019802F060FA05464FF06632664B7F
:1048F00002F0AEF808D3019802F056FA0546634A72
:10490000634B02F035F906D24FF0000A4FF6FF7004
:10491000FEF763FCEEE0BDF81010BDF81420881A15
:10492000002801DB014600E041420C46BDF81220A0
:10493000BDF81610501A002801DB014600E0414284
:104940008946644309FB09F904EB090002F06DF89C
:10495000074602F00AF8054602F03AF81FFA80FB13
:10496000BDF80C10BDF81820881A002801DB01469C
:1049700000E041420C46BDF80E20BDF81A10501A56
:10498000002801DB014600E041428946644309FBFF
:1049900009F904EB090002F048F8074601F0E5FFC9
:1049A000054602F015F880B20290029802F0E0FB92
:1049B0000546584602F0DCFB0646294602F08EFA10
:1049C0000190019802F0F0F905464FF066322E4B47
:1049D00002F03EF808D3019802F0E6F905462B4AAA
:1049E0002B4B02F0C5F806D24FF0000A4FF6FF70CD
:1049F000FEF7F3FB7EE0BDF81010BDF80C20881A1E
:104A000002F09EFB05462946224802F067FA1A4941
:104A1000C860BDF81010BDF80C20881802F090FB9B
:104A200080461548C168404602F0B6FB07461A4961
:104A300002F07EFC06464FF0804102F04FFA054638
:104A400002F042FB00B20C498882BDF81610BDF896
:104A50000E20881A02F074FB054629460F4802F022
:104A60003DFA05490861BDF81610BDF80E208818FA
:104A700002F066FB804613E0C816002020BCBE4C46
:104A80008E0000208C0000206666EE3FCDCCCCCCA2
:104A9000CCCCF03F000048430000704300008C4342
:104AA00015480169404602F077FB0746134902F0BA
:104AB0003FFC06464FF0804102F010FA054602F036
:104AC00003FB00B20C49C8821F200D4908804FF635
:104AD000FF70FEF782FB4FF47A7000F085F84FF616
:104AE000FF70FEF77AFBFFF7C9FD07B0BDE8F08F56
:104AF00000BF00BFF9E50000C81600200000A04379
:104B00008C00002070B504460D46C4F1EF00C4B21D
:104B10000A2229462046FEF734FEA4F10A01C8B253
:104B2000012314222946FEF7CDFDA5F10A0081B22A
:104B3000002314222046FEF7C5FD70BD2DE9F0418B
:104B400006460D46144642F2107094FBF0F03030E9
:104B5000C7B23A4629463046FEF733FD42F210709E
:104B600094FBF0F100FB11404FF47A7190FBF1F0EF
:104B70003030C7B205F1190081B23A463046FEF72F
:104B800020FD4FF47A7094FBF0F100FB114064219A
:104B900090FBF1F03030C7B205F1320081B23A46F5
:104BA0003046FEF70EFD642094FBF0F100FB11404F
:104BB0000A2190FBF1F03030C7B205F14B0081B211
:104BC0003A463046FEF7FDFC0A2094FBF0F100FB6C
:104BD00011403030C7B205F1640081B23A46304628
:104BE000FEF7EFFCBDE8F081014605E043F69820B2
:104BF00000E0401E0028FCD10A00A1F10101F5D11E
:104C00007047014604E00F2000E0401E0028FCD160
:104C10000A00A1F10101F6D170470000704710B5FC
:104C20001448006840F001001249086008464068D6
:104C3000114908400F494860084600680F4908407C
:104C40000C4908600846006820F480200860084687
:104C5000406820F4FE0048600846006820F0A0503C
:104C600008604FF47F0088600020C862FFF7D6FF1D
:104C700010BD0000001002400000FFF0FFFFF6FE34
:104C800008480047FEE7FEE7FEE7FEE7FEE7FEE72F
:104C9000FEE7FEE7FEE7FEE703480449044A054B4A
:104CA000704700005101000840170020401D0020FF
:104CB000401900204019002031490143314A116058
:104CC000704770B5002100230F22C47804B32D4C27
:104CD000246804F4E064C4F5E064210AC1F104032B
:104CE000CA40447804FA03F184781440214309014E
:104CF000254C0678A155047804F01F050124AC402A
:104D000005786D11AD0005F1E025C5F8004109E019
:104D1000047804F01F050124AC401C4D0678761180
:104D200045F8264070BD1A4A0A400243154B1B1F26
:104D30001A60704739B1134A121D12680243114BB1
:104D40001B1D1A6006E00F4A121D126882430D4BAC
:104D50001B1D1A607047042808D14FF0E021096933
:104D600041F004014FF0E022116107E04FF0E02133
:104D7000096921F004014FF0E02211617047000041
:104D80000000FA050CED00E000E400E080E100E046
:104D900080FFFF1F10B50446FD48844209D1012160
:104DA000480601F0F6FA00214FF0007001F0F1FA28
:104DB00008E00121880601F0ECFA00214FF0806044
:104DC00001F0E7FA10BD30B5024600200023146858
:104DD00024F002041460146844F00104146000E03C
:104DE0005B1C546804F001041CB94FF6FF74A34225
:104DF000F6D1546804F001040CB900206CE08C7901
:104E0000012C04D1146844F08004146003E0146899
:104E100024F080041460CC79012C04D1146844F08F
:104E20004004146003E0146824F0400414600C7A19
:104E3000012C04D1146844F02004146003E01468C9
:104E400024F0200414604C7A012C04D1146844F03E
:104E50001004146003E0146824F0100414608C7AC9
:104E6000012C04D1146844F00804146003E01468B1
:104E700024F008041460CC7A012C04D1146844F0A6
:104E80000404146003E0146824F0040414608C78B3
:104E9000A407CD7844EA05640D7944EA05444D79C8
:104EA00044EA05540D886D1E2C43D461146824F027
:104EB00001041460002300E05B1C546804F001044A
:104EC0001CB14FF6FF74A342F6D1546804F00104FC
:104ED0000CB1002000E0012030BD10B50021837A24
:104EE000012202FA03F1AB4A126842F00102A94B17
:104EF0001A60A84A1C3212688A43A64B1C331A60F7
:104F0000027BCAB9A34A0C3212688A43A14B0C3304
:104F10001A604288C38842EA03439E4A4032847A38
:104F200042F834300288838842EA0343994A403287
:104F3000847A02EBC4025360027B012A19D1954A9C
:104F40000C3212680A43934B0C331A604288038870
:104F500042EA03438F4A4032847A42F83430C288AE
:104F6000838842EA03438B4A4032847A02EBC402CC
:104F70005360C27A3AB9874A121D12688A43854B38
:104F80001B1D1A6006E0834A121D12680A43814BFA
:104F90001B1D1A60028932B97E4A143212688A4394
:104FA0007C4B14331A600289012A06D1794A1432E3
:104FB00012680A43774B14331A60427B012A06D1E8
:104FC000744A1C3212680A43724B1C331A60714ACD
:104FD000126822F001026F4B1A6010BD002181712E
:104FE000C171017241728172C1728170C1700321FD
:104FF00001710221417101210180704765490968F1
:1050000041F00101634A11601146096843F60E72CE
:105010009143604A11601146096841EA002111601C
:105020001146096821F00101116070471AB1436906
:105030000B43436102E043698B434361704710B502
:1050400002460020936803F08063B3F1806F00D1C3
:1050500010E0936803F00063B3F1006F01D1012009
:1050600008E0936803F08053B3F1805F01D1022020
:1050700000E00420042874D002F5C07303EB001391
:105080001B6803F0010402F5C07303EB00131C60FE
:105090008B687BB90C88CB6843EA445302F5C07433
:1050A00004EB00142468234302F5C07404EB0014DD
:1050B000236010E0D1E9014343EAC403CC682343F1
:1050C00002F5C07404EB00142468234302F5C07495
:1050D00004EB001423600B7C03F00F030B7402F548
:1050E000C07303EB00135B6823F00F0402F5C07379
:1050F00003EB00135C6002F5C07303EB00135B6805
:105100000C7C234302F5C07404EB001463600B7D38
:105110001C06CB7C44EA03448B7C44EA03234C7C8E
:10512000234302F5C07404EB0014A3600B7E1C063D
:10513000CB7D44EA03448B7D44EA03234C7D234327
:1051400002F5C07404EB0014E36002F5C07303EBD6
:1051500000131B6843F0010402F5C07303EB001356
:105160001C6010BD0246002021B1012914D0022983
:1051700030D120E0936803F0010340EA8300936894
:1051800003F0020318439368C3F38063184323E0DA
:105190000064004000660040936803F4807340EAB6
:1051A0009310936803F4007340EA13209368C3F3E9
:1051B000C063184310E0936803F4803340EA9330EF
:1051C000936803F4003340EA13409368C3F3007319
:1051D000184301E0002000BF00BF20B1052804D023
:1051E000072806D103E0022005E0002003E00120AB
:1051F00001E0002000BF00BF704721B1012907D0A6
:1052000002290FD109E0826842F0800282600AE040
:10521000826842F40042826005E0826842F4000243
:10522000826000E000BF00BF704711B92022C26059
:1052300001E02022026170470246002019B9D368BC
:1052400003F0030006E0012903D1136903F0030012
:1052500000E00020704730B505460C46134605F5C2
:10526000D87000EB0410006800F004001872187A7F
:1052700050B905F5D87000EB0410006840F2FF71DA
:1052800001EA5050186009E005F5D87000EB0410F1
:1052900000686FF0604101EAD000586005F5D870F1
:1052A00000EB0410006800F00200587205F5D87099
:1052B00000EB0410406800F00F00987205F5D870FC
:1052C00000EB04104068000AD87405F5D87000EBB4
:1052D00004108068D87205F5D87000EB041080685F
:1052E000010A197305F5D87000EB04108068010CF1
:1052F000597305F5D87000EB04108068000E9873A0
:1053000005F5D87000EB0410C068D87305F5D870A7
:1053100000EB0410C068010A197405F5D87000EBA1
:105320000410C068010C597405F5D87000EB041026
:10533000C068000E987421462846FFF776FF30BDFE
:1053400021B1026842F48032026003E0026822F474
:10535000803202607047014600200A6822F0010294
:1053600042F002020A604A6802F00302022A00D1F7
:105370000120704701464FF6FF7200200B6823F0B2
:1053800002030B6000E0521E4B6803F00203022B85
:1053900001D1002AF7D14B6803F00203022B00D0A1
:1053A000012070470246002093690B400BB1012099
:1053B00000E00020704782698A438261704702469C
:1053C000002002EA01030BB1012000E00020704739
:1053D00070B504460D460026402D47D00EDC072D43
:1053E0002BD006DC042D2FD0052D19D0062D61D130
:1053F0001CE0082D2ED0202D5CD131E0B5F5806F5A
:1054000046D006DCB5F5807F36D0B5F5007F51D1AA
:1054100038E0B5F5803F47D0B5F5003F4AD13DE0D3
:10542000A0680121FFF7CBFF064645E0A0684FF4D6
:105430008071FFF7C4FF06463EE0A0684FF480315C
:10544000FFF7BDFF064637E0E0680821FFF7B7FF2A
:10545000064631E0E0681021FFF7B1FF06462BE079
:1054600020690821FFF7ABFF064625E020691021DF
:10547000FFF7A5FF06461FE0A0690121FFF79FFF88
:10548000064619E0A0690221FFF799FF064613E0DE
:10549000A0690421FFF793FF06460DE06068102124
:1054A000FFF78DFF064607E060680821FFF787FFDA
:1054B000064601E0002600BF00BF304670BD40290F
:1054C00035D00EDC072925D006DC042926D0052995
:1054D00019D0062943D119E0082922D020293ED12C
:1054E00022E0B1F5806F2FD006DCB1F5807F21D0AE
:1054F000B1F5007F33D122E0B1F5803F29D0B1F57D
:10550000003F2CD128E00122826029E04FF4807214
:10551000826025E04FF48032826021E00822C26080
:105520001EE01022C2601BE00822026118E0102277
:10553000026115E0826922F00102826110E0826955
:1055400022F0020282610BE0826922F00402826191
:1055500006E00822426003E01022426000E000BF43
:1055600000BF7047002044490860091D0860091DFC
:105570000860091D086041483F49143108607047C0
:1055800000213D498279002A3AD00A461268036810
:105590009A430B461A600A1D126803689A430B1D52
:1055A0001A60027911440A6803681A430A60324A91
:1055B0000832126803689A432F4B08331A601A1D89
:1055C000126803689A432C4B0C331A604279102AF4
:1055D0000ED11A1F126803681A43274B08331A604A
:1055E0001A1D126803681A43234B0C331A600DE02E
:1055F0002149427911440A6803681A430A6005E0A8
:10560000027911440A6803689A430A6070470021CE
:10561000016001710C2141710021817170471649AF
:10562000103109680143144A103211607047014675
:105630000020114A143212680A400AB1012000E029
:10564000002070470C491431086070470146002063
:105650000022094B1B6803EA0102074B14331B6845
:105660000B4013B10AB1012000E00020704702494D
:10567000143108607047000000040140FFFF0F0074
:1056800001460020FD4A106800F038000843106011
:105690007047FA49096821F00801F84A116011467B
:1056A0000968014311607047F449096821F010014D
:1056B000F24A116011460968014311607047F048D1
:1056C000EE494860EF4848607047EC48006940F098
:1056D0008000EA49086170470420E849C96801F080
:1056E000010109B101200EE0E449C96801F004019B
:1056F00009B1022007E0E149C96801F0100109B1D0
:10570000032000E00420704708B500200090FF202F
:10571000009002E00098401E009000980028F9D107
:1057200008BD70B504460425FFF7D6FF054605E021
:10573000FFF7EAFFFFF7D0FF0546641E012D01D1F8
:10574000002CF5D104B90525284670BD70B5054675
:10575000042440F6FF70FFF7E4FF0446042C19D13F
:10576000C648006940F00200C44908610846456126
:10577000006940F04000086140F6FF70FFF7D1FF7C
:105780000446052C06D0BD48006941F6FD7108406D
:10579000BA490861204670BD10B5042440F6FF7078
:1057A000FFF7BFFF0446042C18D1B448006940F04D
:1057B0000400B24908610846006940F040000861F1
:1057C00040F6FF70FFF7ADFF0446052C06D0AB484E
:1057D000006941F6FB710840A8490861204610BDE8
:1057E00010B5042440F6FF70FFF79BFF0446042C1D
:1057F0003BD1A348A1498860A24888600846006957
:1058000040F0200008610846006940F0400008614F
:1058100040F6FF70FFF785FF0446042C1CD1974823
:10582000006941F6DF710840944908610846006943
:1058300040F010000861A520934908800F20FFF771
:1058400070FF0446052C10D08C48006941F6EF71BA
:1058500008408A49086108E0052C06D0874800699D
:1058600041F6EF71084085490861204610BDF8B542
:1058700006460D460424002000900F20FFF751FF3C
:105880000446042C28D17D48006940F001007B4982
:10589000086135800F20FFF744FF0446042C12D125
:1058A000B01C0090280C009908800F20FFF739FFEA
:1058B0000446052C10D07148006941F6FE7108407D
:1058C0006E49086108E0052C06D06C48006941F675
:1058D000FE710840694908612046F8BD70B505466B
:1058E0000E4604240F20FFF71CFF0446042C13D19E
:1058F0006248006940F00100604908612E800F2075
:10590000FFF70FFF0446052C06D05C48006941F6FE
:10591000FE71084059490861204670BD70B50546C2
:105920000E4604240F20FFF7FCFE0446042C17D17A
:10593000534852498860534888600846006940F0DF
:10594000100008612E800F20FFF7EBFE0446052CA7
:1059500006D04A48006941F6EF710840474908619E
:10596000204670BD2DE9F04704464FF6FF763746D6
:10597000B046B1460425E443E6B2C4F30727C4F3B6
:1059800007484FEA14690F20FFF7CBFE0546042DA8
:1059900040D13B48394988603A48886008460069E8
:1059A00040F010000861FF2E06D03748083006800E
:1059B0000F20FFF7B6FE0546042D08D1FF2F06D0B5
:1059C00031480A3007800F20FFF7ABFE0546042D53
:1059D0000AD1B8F1FF0F07D02B480C30A0F8008097
:1059E0000F20FFF79EFE0546042D0AD1B9F1FF0FE7
:1059F00007D025480E30A0F800900F20FFF791FE49
:105A00000546052D06D01D48006941F6EF71084096
:105A10001A4908612846BDE8F08770B50546042498
:105A200040F6FF70FFF77DFE0446042C49D1144870
:105A300012498860134888600846006940F02000D9
:105A400008610846006940F04000086140F6FF70B8
:105A5000FFF767FE0446042C2AD10848006941F686
:105A6000DF710840054908610846006940F01000F0
:105A700008615DB10020044908800AE0002002406E
:105A800023016745AB89EFCD00F8FF1FA5204549ED
:105A9000088040F6FF70FFF744FE0446052C10D046
:105AA0004148006941F6EF7108403F49086108E04C
:105AB000052C06D03C48006941F6DF7108403A49A0
:105AC0000861204670BD2DE9F04105460E46174697
:105AD0000424364834498860354888600F20FFF731
